:020000040800F2
:100000000050002021020008270200082B020008EF
:100010009D020008A1020008E9020008000000009B
:100020000000000000000000000000003103000894
:10003000350300080000000039030008ED0A00083D
:100040004D0300084D0300084D0300084D03000850
:100050004D0300084D0300084D0300084D03000840
:100060004D0300084D0300084D0300084D03000830
:100070004D0300084D0300084D0300084D03000820
:100080004D0300084D0300084D0300084D03000810
:100090004D0300084D0300084D0300084D03000800
:1000A0004D0300084D0300084D0300084D030008F0
:1000B0004D0300084D0300084D0300084D030008E0
:1000C0004D0300084D0300084D0300084D030008D0
:1000D0004D030008B50B00084D0300084D03000850
:1000E0004D0300084D0300084D0300080000000008
:1000F0000000000000000000000000000000000000
:1001000000000000000000005FF808F100B583B0B7
:1001100000F0AAF9304B314A1360314A1360314B79
:10012000314A32498B4204D21168196004330432D7
:10013000F7E72A4B1A682E4B9A4200D0FEE7284B6D
:100140001A682C4B9A42F9D1234B2B4A13602B4A45
:1001500013602B4B02E000221A600433294A9342B9
:10016000F9D3254B1B6813B9244B1B6803B1FEE779
:1001700000F086F9694601A800F022F9224C234BD1
:10018000E41AA4100025AC4214DC214C214BE41AE3
:10019000A4100025AC4213DC0099019801F0EAF8A4
:1001A00005461D4C1D4BE41AA410002C0EDC2846FD
:1001B00000F0E2F8154B53F8253098470135E2E797
:1001C000144B53F8253098470135E3E7013C134BB6
:1001D00053F824309847E8E7BABADECA0000002096
:1001E000F000002000000020FC1E0008F4000020A9
:1001F0007856341232547698F40000202C080020EF
:10020000F40000203008002078030008780300087C
:1002100078030008780300087803000878030008D2
:1002200008B5FFF773FF00BEFEE71EF0040F0CBF1A
:10023000EFF30880EFF309807146414A10472DE93A
:10024000F04182B004468846124B5E6B9F6B9D6AFC
:100250001B6B13F0020F03D00E4BDB6A002B0CDB81
:100260000D4800F0B5F8CDF800803B4632462946EF
:10027000204600F009F900BEFEE74BF6AB6100F046
:100280007DF90028ECD0034B4FF00042DA6202B057
:10029000BDE8F08100ED00E0881D000800BEFEE72B
:1002A0001EF0040F0CBFEFF30880EFF309807146D6
:1002B000244A10472DE9F04182B004468846084B95
:1002C0005E6B9F6B9D6A074800F082F8CDF8008056
:1002D0003B4632462946204600F0D6F800BEFEE7EF
:1002E00000ED00E0981D00081EF0040F0CBFEFF3B6
:1002F0000880EFF309807146134A10472DE9F04159
:1003000082B004468846084B5E6B9F6B9D6A074827
:1003100000F05EF8CDF800803B4632462946204684
:1003200000F0B2F800BEFEE700ED00E0A41D0008FA
:1003300000BEFEE700BEFEE700BEFEE7704700001D
:100340003F020008B5020008FD02000800BEFEE7FB
:10035000FC1E000800000020F4000020FC1E000825
:100360000000000000000000F40000203008002021
:08037000000000000000000085
:10037800FEE7000008B503460C4A12685AB10B4A5A
:100388001068033323F003030344094A934206D851
:10039800064A136008BD054A06491160EFE701F0F7
:1003A80029F80C2303604FF0FF30F3E7F800002032
:1003B800004C00203008002001230360014B0B6033
:1003C800704700BF040000200FB400B583B004AB31
:1003D80053F8042B01938021064801F045F80028C2
:1003E80003DD0146034800F037F803B05DF804EB7D
:1003F80004B07047000100202DE9F04385B00446A1
:100408000F4643560BB10E461EE0042528462146EA
:10041800ABBE0446384605B0BDE8F08314F9011BAD
:1004280004AA1A4402F8101C0133AB42F6D304AAFA
:100438001344002203F8102C4FF00408E946404604
:100448004946ABBE8046761B002EE3D03546102EBB
:1004580028BF10250023E8E708B5FFF7CDFF08BD42
:1004680008B500F0FDF8024A024B9A6008BD00BFCB
:100478000000000800ED00E008B500F019F908BD1B
:10048800F8B504460D4617461E462748FFF79CFF59
:1004980021682648FFF798FF61682548FFF794FF11
:1004A800A1682448FFF790FFE1682348FFF78CFF15
:1004B80021692248FFF788FF61692148FFF784FF17
:1004C800A1692048FFF780FFE1691F48FFF77CFF1B
:1004D8001E48FFF779FF29461D48FFF775FF1D4C99
:1004E800E16A1D48FFF770FF216B1C48FFF76CFF9E
:1004F800E16B1B48FFF768FF15F0800F0AD115F470
:10050800004F0CD11748FFF75FFF06991648FFF711
:100518005BFFF8BD39461548FFF756FFEFE7314650
:100528001348FFF751FFEDE76C1C00087C1C00081E
:100538008C1C00089C1C0008AC1C0008BC1C000893
:10054800CC1C0008DC1C0008EC1C0008FC1C000883
:10055800081D000800ED00E0181D0008281D00080F
:10056800381D0008681D0008701D0008481D000897
:10057800581D000883691A888A4201D000207047F4
:100588000268033A012A03D80233836101207047C5
:100598000020704782B00023019300932C4A13680F
:1005A80043F4803313602A4B1B6803F40033009331
:1005B800019B01330193009B1BB9019BB3F5A06F0D
:1005C800F1D1234B1B6813F4003F06D0012300939D
:1005D800009B012B04D002B0704700230093F7E77B
:1005E8001C4B1A6842F010021A601A6822F00302C3
:1005F8001A601A6842F002021A60A3F580535A681A
:100608005A605A685A605A6842F480625A605A6856
:1006180022F47C125A605A6842F4E8125A601A6846
:1006280042F080721A600A4B1B6813F0007FFAD000
:10063800074B5A6822F003025A605A6842F00202D5
:100648005A60034B5B6803F00C03082BF9D1C2E72F
:10065800001002400020024008B5FFF79BFF08BDCC
:1006680008B5104B1A6842F001021A6059680E4A20
:100678000A405A601A6822F0847222F480321A60A2
:100688001A6822F480221A605A6822F4FE025A601C
:100698004FF41F029A60FFF7DFFF044B4FF0006230
:1006A8009A6008BD001002400000FFF800ED00E06D
:1006B8001F4B5B6803F00C03042B15D0082B17D0D5
:1006C8001BB11C4B1C4A1A6002E01A4B1A4A1A60EA
:1006D800174B5B68C3F30313184AD35CDAB21549A6
:1006E8000B68D3400B607047124B134A1A60EFE750
:1006F8000F4A53685268C3F38343023312F4803FAE
:100708000AD00B4A526812F4003F0BD00C4A02FB85
:1007180003F3084A1360DBE7094A02FB03F3054ABF
:100728001360D5E7044A02FB03F3024A1360CFE7DC
:10073800001002401C00002000127A000C0000206B
:1007480000093D00154BDB6813F0010FFAD1134B7C
:100758001B6913F0800F05D0104B114A5A6002F143
:1007680088325A600D4B1A6942F002021A618002FF
:1007780000F1006058611A6942F040021A61074BA3
:10078800DB6813F0010FFAD1044BDA6842F020025B
:10079800DA601A6922F002021A61704700200240EA
:1007A8002301674510B5082404E02046FFF7CAFF77
:1007B8000134E4B23F2CF8D910BD000030B482B047
:1007C800184BDB6813F0010FFAD1164B1B6913F0B5
:1007D800800F05D0134B144C5C6004F188345C60C6
:1007E80000241AE00F4D2B6943F001032B6131F807
:1007F8001430ADF8063020F8023B0A4BDB6813F0E2
:10080800010FFAD1074BDD6845F02005DD601D6951
:1008180025F001051D610134E4B29442E2D302B02F
:1008280030BC7047002002402301674510B40128FE
:1008380024D018B1022841D010BC7047072910D91C
:100848000F29F9D8A1F10804E4B2A4000F23A340AA
:100858002A48016821EA030302FA04F119430160F6
:10086800EAE789000F2303FA01F0254C236823EAFD
:10087800000302FA01F119432160DDE7072910D9C5
:100888000F29D9D8A1F10800C0B280000F238340F6
:100898001C4C216821EA030302FA00F11943216084
:1008A800CAE789000F2303FA01F0174C236823EAEB
:1008B800000302FA01F119432160BDE7072910D9A5
:1008C8000F29B9D8A1F10803DBB29B000F2098408B
:1008D8000E4C216821EA000002FA03F1014321606D
:1008E800AAE789000F2303FA01F0094C236823EAD9
:1008F800000302FA01F1194321609DE70408014051
:1009080000080140040C0140000C014004100140A3
:1009180000100140014B024ADA60704700ED00E028
:100928000005FA051F2809D93B2806D82038C0B287
:10093800012303FA00F0044B18607047012303FAFF
:1009480000F0024B1860704704E100E000E100E0AD
:100958003B2804DC00F1604000F5644001707047FA
:100968000246A0F13003D8B2092802D9A2F1370013
:10097800C0B270472DE9F84F06464078FFF7F0FF00
:100988000746B078FFF7ECFF40EA0717FFB2F078A8
:10099800FFF7E6FF04463079FFF7E2FF0546707976
:1009A800FFF7DEFF8046B079FFF7DAFF1F4A53886A
:1009B80040EA034040EA081848EA052848EA0438AB
:1009C800C2F80080002527E04FEA850B0BF10903E8
:1009D800F05CFFF7C5FF81460BF10A03F05CFFF7F7
:1009E800BFFF82460BF10B03F05CFFF7B9FF04462B
:1009F8000BF10C0B16F80B00FFF7B2FF240344EAC7
:100A0800002000B240EA0A0000B240EA0910084B90
:100A180023F815000135EDB27A08AA42D4D8044962
:100A28004046FFF7CBFEBDE8F88F00BF200000204E
:100A38008001002008B5037A302B00D008BDFFF7ED
:100A480099FFFBE71F291CD801280BD010B10228F9
:100A580010D07047012303FA01F10A4A13680B43C7
:100A680013607047012303FA01F1074A13680B4327
:100A780013607047012303FA01F1044A13680B431A
:100A880013607047141002401C10024018100240F6
:100A9800034B81221A60043300221A60704700BF9A
:100AA80000100240014B00221A60704710E000E07D
:100AB8004FF47A7303FB00F0094B58601A6842F050
:100AC80001021A60064B1B6813F4803FFAD0044BEE
:100AD8001A6822F001021A6000225A609A60704770
:100AE80010E000E008B50A4B1B785BB9094B1A689F
:100AF80022F002021A601A6842F001021A6000220B
:100B08005A609A60044B1B689847024B1B6808BDE3
:100B18004C02002010E000E04802002008B50E2139
:100B28000220FFF78FFF0B4B45229A60DA6842F0EC
:100B38000802DA60DA6842F00402DA60DA6842F041
:100B48002002DA60DA6842F40052DA6000221A60A1
:100B580008BD00BF0038014000210B46425CAAB125
:100B680010B403E00131C9B2425C6AB1084C62605A
:100B7800074A126812F0400FF4D101339BB242F2D7
:100B880010729342F4D1EDE710BC7047704700BF74
:100B98000038014008B1014A106070475002002037
:100BA800014B00221A6070470038014008B5034B1A
:100BB8001B689847FFF7F4FF08BD00BF50020020EC
:100BC8000F4B5B68DBB20F4A13700F4A127812B1F1
:100BD800012A0AD070474E2B01D02B2B0ED10B4A7D
:100BE8001370094B01221A7070476F2B01D0432BE9
:100BF80001D1064A5370044B00221A70704700BF97
:100C080000380140620200205702002080020020C4
:100C180070B406460025284609E003EB830253001A
:100C280001344A1B013AA242F7D8184401358D42D3
:100C380003D27357303B0024F3E770BC70470000C1
:100C480038B5384B5B68DBB2374A1370374A1278CD
:100C5800012A10D04AB1022A23D0FFF7A1FF314A56
:100C6800136823F02003136038BD2C2BF5D12F4BCC
:100C780001221A70F1E73A2B06D02D490A882D482F
:100C8800835401320A80E8E7294C21882948FFF774
:100C9800BFFF294B1860254B02221A7000232380BE
:100CA800DBE70D2BD9D0244A12684AB3013A22490E
:100CB8000A6022490D782249097805EB4500C0EB06
:100CC8000010204C204443540A2B0DD001311E4BF8
:100CD80083FB01230B445B1103EB4303C3EB0313B7
:100CE800CB1A174A1370B8E7013A134B1A60144B22
:100CF80000221A701D2DB0D80135104B1D70ACE7BD
:100D08000E4803780E490C7803EB4303C3EB031337
:100D18000C4A13440A221A550023044A137003701C
:100D28000B709AE70038014062020020560200204A
:100D3800660200205C0200205802002068020020A1
:100D480064020020E4020020B7600BB60B4B5B681E
:100D5800DBB20B4A13700B4A12780B498B54501EA6
:100D6800095C3A2903D00132064B1A707047303BB0
:100D7800DBB2012BF7D805490B70F4E700380140C6
:100D88006202002063020020800200206D02002021
:100D980008B50C48FFF7FEFE0A2209210020FFF7DC
:100DA80045FD04220A210020FFF740FD0648FFF711
:100DB800D3FE0648FFF7D0FE44F62060FFF778FE22
:100DC80008BD00BFC90B0008141E00081C1E00083F
:100DD80010B504460948FFF7BFFE2046FFF7BCFEE2
:100DE8000748FFF7B9FE0748FFF7B6FE0648FFF7C2
:100DF800B3FE44F62060FFF75BFE10BD2C1E000812
:100E0800401E0008441E0008181E000808B50E48B9
:100E1800FFF7A2FE40F6B830FFF74AFE0B4B1B78EF
:100E28004E2B07D02B2B0DD1084B5B78432B07D1CA
:100E3800012008E0054A52786F2AF3D1002002E029
:100E4800FF2000E0FF2008BDC81D00088002002028
:100E580070B582B002E00133344A1370334B1B780B
:100E6800334AD25C002AF6D1324B1A7008E02F4D73
:100E78002A782F4EB45401332E4C237001322A7035
:100E88002C4B1B78C45C002CF1D12B4B00221A7020
:100E980008E0264C2278264DA854013326480370D2
:100EA80001322270244B1B78244AD05C0028F0D1F0
:100EB800234B00221A7008E01C4C22781C4DA854C1
:100EC80001331F480370013222701D4B1B78C85C28
:100ED8000028F1D11B4B00221A7008E01348027851
:100EE800134CA154013317490B7001320270154B92
:100EF8001B78154AD15C0029F0D1FF238DF8073003
:100F0800FFF784FF8DF807009DF80730DBB2012B4F
:100F18000AD00748FFF720FE42F21070FFF7C8FD1D
:100F28009DF80730002BEBD002B070BD55020020B1
:100F380024000020690200206A020020B41D000875
:100F48006B0200206C020020BC1D000800200B4B27
:100F580018700DE000EB4002C2EB021208490A4487
:100F68000021D15401339BB22C2BF3D9013080B22C
:100F78001D2801D80023F7E7704700BF540200205E
:100F8800E402002038B505460C46FFF7DFFF12489B
:100F9800FFF7E2FD114B1B78022B19D01048FFF721
:100FA800DBFD1048FFF7D8FD40F6B830FFF780FDAD
:100FB800FFF7CCFF0C48FFF7CFFD2846FFF7CCFD25
:100FC8002046FFF7C9FD40F6B830FFF771FD38BD80
:100FD8000648FFF7C1FDE4E7D41D00086D020020B4
:100FE800E41D0008181E0008E81D0008E01D0008A0
:100FF800F0B5BDB006460D46554A23AB07CA83E88F
:1010080007005822002126A800F0FAF91BAC514F1E
:101018000FCF0FC497E80F0007C424F8023B1B0C3E
:1010280023704D4B1B68ADF868301B0C8DF86A3087
:101038006422002101A800F0E3F9002301E0013354
:10104800DBB23CAA1A4412F8642C002AF7D106E055
:101058003CA8184400F8641C0133DBB20132B15CCF
:101068000029F5D1002206E03CA8184400F8641CC9
:101078000133DBB201323CA9114411F8841C002968
:10108800F2D1092D08D830353CAA1A4402F8645C1C
:101098000133DBB2002223E0A5F10A02D2B2592AB9
:1010A800F8D82E4AA2FB0512D20802F130003CA95A
:1010B800194401F8640C591CC9B202EB82025000B1
:1010C8002D1A30353CAA0A4402F8645C0233DBB2BC
:1010D800E0E73CA8184400F8641C0133DBB2013295
:1010E8003CA9114411F8881C0029F2D1092B14D904
:1010F800A3F10A02D2B2592A12D8184AA2FB031243
:10110800D20802F130018DF8041002EB820251007E
:101118005B1A30338DF8053002E030338DF8043037
:10112800FFF714FF0E48FFF717FD01A8FFF714FD9E
:101138000948FFF711FD40F6B830FFF7B9FC23A8BE
:10114800FFF70AFD40F2DC50FFF7B2FC3DB0F0BDFE
:10115800E81D0008F41D0008181E0008CDCCCCCCF2
:10116800D41D000808B5044B044A1A60044B1B68D8
:10117800044A1360984708BD08ED00E00020000805
:1011880004200008700200202DE9F041069E002787
:10119800BC463C4617E0055DA5F1300E5FFA8EFEB1
:1011A800BEF1090F24D8303DDFF8E480B8F800E03C
:1011B80005FB0E77BFB24FEA1E1EA8F800E07D00BF
:1011C8000D700134E4B2092C44D8002CF9D0651E06
:1011D800EDB2012DDFD9E51EEDB2032D1CD9082C87
:1011E800EFD1055D303DEDB2092DEAD81D70E8E775
:1011F800A5F1410E5FFA8EFEBEF1050FDFD8373D2F
:10120800DFF88C80B8F800E005FB0E77BFB24FEA34
:101218001E1EA8F800E0D2E7055DA5F1300E5FFAC2
:101228008EFEBEF1090F06D802F80CE00CF1010C95
:101238005FFA8CFCC5E7A5F1410E5FFA8EFEBEF1A0
:10124800050FBED8373D02F80C500CF1010C5FFABF
:101258008CFCB6E7002209240AE0A5F14103DBB2C1
:10126800052B03D8373DB5540132D2B20134E4B26C
:101278000B7809339C4209DA055DA5F13003DBB22E
:10128800092BEAD8B3540132D2B2EFE7BDE8F081B6
:101298008800002070B58CB02D48FFF77BFCFFF765
:1012A80081FA00218DF82F108DF82E100A91202236
:1012B80002A800F0A5F8012623E02046FFF7BAFBB4
:1012C8000135EDB21D2D16D805EB4500C0EB001019
:1012D800204C044402AB00930DF12E030AAA0DF131
:1012E8002F012046FFF750FF9DF82E30042BE4D045
:1012F800002BE5D1E1E70136F6B29DF82E30012B3F
:1013080019D0154D2846FFF763FD144C3146204689
:10131800FFF76EFE4FF47A70FFF7CAFB2846FFF717
:1013280057FD0F492046FFF72DFE4FF47A70FFF75F
:10133800BFFB0025C6E70B4B02221A700648FFF7D1
:1013480047FD09490548FFF71DFE0CB070BD00BFF9
:10135800490C0008E4020020481E0008581E000836
:10136800701E00086D020020801E000808B5FFF7F7
:101378008FFB02210846FFF765FBFFF7CBFA302108
:101388002520FFF7E5FAFFF78DFBFFF7C7FB2520C0
:10139800FFF7C8FAFFF7FCFC012200210846FFF717
:1013A80045FA0D490D48FFF753FD0D48FFF7F2FBCD
:1013B8000C48FFF70DFD0C490C48FFF7E3FD0C4BFB
:1013C8001B78012B02D0FFF7CDFE08BDFFF762FFA7
:1013D800FFF7C8FEF9E700BF981E0008A81E00081E
:1013E800550D0008481E0008B81E0008581E0008C1
:1013F8006D020020014B1868704700BF8C00002068
:1014080003460244934200D1704703F8011BF9E7F1
:1014180030B5141E05469BB0184605DA8B234FF0ED
:10142800FF302B601BB030BD4FF40273ADF80C30A9
:101438000CBF234604F1FF33029305934FF6FF7365
:1014480000910491ADF80E3002461E9B694628466D
:1014580000F072F8431CBCBF8B232B60002CE1D03A
:101468000022009B1A70DDE707B5009313460A4671
:10147800014603480068FFF7CBFF03B05DF804FBA3
:101488008C0000202DE9F0478E6882469E420C466B
:101498009046994637D88A8912F4906F31D0022342
:1014A800256809696F1A656905EB450595FBF3F52C
:1014B80009F101033B449D4238BF1D46530530D511
:1014C800294600F035FB064650B90C234FF0FF3093
:1014D800CAF80030A38943F04003A381BDE8F08730
:1014E8003A46216900F0B4FAA38923F4906343F0E3
:1014F8008003A38126613E4426604E466561ED1B4C
:10150800A5604E4500D94E4632464146206800F057
:10151800AAFAA36800209B1BA36023681E442660C8
:10152800DCE72A4600F05EFB06460028E2D1216986
:10153800504600F0B1FAC8E72DE9F04F9DB003938B
:101548008B8980461D060C4616460FD50B696BB96C
:10155800402100F0EDFA2060206128B90C23C8F87A
:1015680000304FF0FF30C7E0402363610023099348
:1015780020238DF8293030234FF0010B8DF82A30C5
:1015880037463D4615F8013B0BB1252B3ED1B7EB4D
:10159800060A0BD05346324621464046FFF772FFF3
:1015A800013000F0A480099B534409933B78002B39
:1015B80000F09D8000234FF0FF32CDE9052304930E
:1015C80007938DF853301A932F46052217F8011BFD
:1015D8004F4800F02FFA049BD0B9D90644BF202207
:1015E8008DF853201A0744BF2B228DF853202A78F0
:1015F8002A2A15D02F4600200A25079A394611F8BD
:10160800013B303B092B4DD9B8B10FE02F46B8E765
:101618003F4A3D46801A0BFA00F018430490D3E77E
:10162800039A111D12680391002A01DB079204E056
:10163800524243F00203079204933B782E2B0CD1BD
:101648007B782A2B33D1039B02371A1D1B68039220
:10165800002BB8BF4FF0FF3305932E4D0322397886
:10166800284600F0E7F938B14023401B03FA00F0A0
:10167800049B0137034304933978062226487E1CCD
:101688008DF8281000F0D6F9002838D0234B13BB6A
:10169800039B073323F0070308330393099B4B4449
:1016A80009936DE705FB023201200F46A6E70023E8
:1016B8000A25194601370593384610F8012B303AA8
:1016C800092A03D9002BC8D00591C6E705FB0121DB
:1016D80001230746F0E703AB00932246104B04A909
:1016E8004046AFF30080B0F1FF3F8146D6D1A389D1
:1016F8005B063FF536AF09981DB0BDE8F08F03AB28
:1017080000932246064B04A9404600F081F8EAE718
:10171800C81E0008CE1E0008D21E000800000000E7
:101728008D1400082DE9F04791461F468A680B6919
:1017380006469342B8BF1346C9F8003091F84320D3
:101748000C46DDF8208012B10133C9F80030236857
:10175800990642BFD9F800300233C9F8003025682D
:1017680015F0060507D104F1190AE368D9F8002035
:101778009B1AAB4229DC94F843302268003318BF27
:10178800012392062ED404F1430239463046C0475D
:10179800013021D02368E56803F00603042B18BF45
:1017A8000025D9F800204FF0000908BFAD1AA3683A
:1017B800226908BF25EAE5759342C4BF9B1AED1854
:1017C8001A344D451AD1002008E001235246394603
:1017D8003046C047013003D14FF0FF30BDE8F087F5
:1017E8000135C2E73020E11881F843005A1C94F80B
:1017F80045102244023382F84310C4E701232246ED
:1018080039463046C0470130E6D009F10109D8E72A
:101818002DE9F04301F1430C0C46097E85B06E2991
:101828001746064698460C9A00F0B38022D86329DA
:1018380036D00AD8002900F0B980582900F08380F2
:1018480004F1420584F8421032E0642901D0692984
:10185800F6D120681368050603F104012AD51B6830
:101868001160002B03DA2D225B4284F843206F4875
:101878000A2239E0732900F09D8008D86F2920D00A
:101888007029DDD1236843F02003236003E0752924
:1018980017D07829D4D17823654884F8453055E0A5
:1018A800136804F14205191D1B68116084F8423061
:1018B80001238CE01B6810F0400F116018BF1BB2A9
:1018C800CFE713682568181D1060280601D51B6826
:1018D80002E06806FBD51B886F2914BF0A2208227C
:1018E8005248002184F843106568002DA560C0F2B5
:1018F8009580216821F004012160002B3DD1002D45
:1019080040F08E806546082A0BD12368DB0708D58E
:10191800236962689A42DEBF302305F8013C05F16D
:10192800FF35ACEB05032361CDF800803B4603AAE5
:1019380021463046FFF7F6FE01304DD14FF0FF301B
:1019480005B0BDE8F083394884F84510136821686C
:101958001D1D1B6815600A060BD5CA0744BF41F058
:10196800200121601BB9226822F020022260102287
:10197800B7E74D0648BF9BB2EFE76546B3FBF2F108
:1019880002FB1133C35C05F8013D0B460029F5D174
:10199800B9E713682568181D6169106028061B6877
:1019A80001D5196002E06A06FBD519800023654657
:1019B8002361B9E71368191D11601D686268002169
:1019C800284600F037F808B1401B6060636823615F
:1019D800002384F84330A7E723692A46394630466E
:1019E800C0470130AAD023689B0713D4E068039B43
:1019F8009842B8BF1846A3E701234A4639463046FD
:101A0800C04701309AD00135E368039A9B1AAB426C
:101A1800F2DCEBE7002504F11909F5E7002BACD15E
:101A2800037804F1420584F842306CE7D91E0008B7
:101A3800EA1E000810B5C9B202449042034601D11B
:101A4800002303E01C7801308C42F6D1184610BD03
:101A580010B5431E0A44914200D110BD11F8014B44
:101A680003F8014FF7E7884210B501EB020307D8E6
:101A7800421E99420AD011F8014B02F8014FF8E7CB
:101A88008342F5D98118D21AD34200D110BD13F878
:101A9800014D01F8014DF7E738B50546002943D057
:101AA80051F8043C0C1F002BB8BFE41800F0D0F824
:101AB8001E4A1368104633B9636014602846BDE8AF
:101AC800384000F0C6B8A3420BD921686218934287
:101AD80001BF1A685B685218226063600460EDE712
:101AE80013465A680AB1A242FAD919685818A0428E
:101AF8000BD120680144581882421960DED1106861
:101B08005268014419605A60D8E702D90C232B6047
:101B1800D4E7206821188A4201BF11685268091861
:101B2800216062605C60C9E738BD00BF74020020B4
:101B380070B5CD1C25F0030508350C2D38BF0C25D4
:101B4800002D064601DBA94203D90C23336000208F
:101B580070BD00F07DF8214A1468214691B9204CE7
:101B680023681BB9304600F063F8206029463046E8
:101B780000F05EF8431C24D10C233046336000F09B
:101B880068F8E4E70B685B1B18D40B2B0FD90B60C4
:101B9800CC18CD50304600F05CF804F10B00231D42
:101BA80020F00700C31AD3D05A42E250D0E74B685E
:101BB8008C4216BF636013600C46EBE70C4649681D
:101BC800CCE7C41C24F00304A04205D0211A3046F7
:101BD80000F02EF80130CFD02560DBE7740200203A
:101BE80078020020F8B5074614460E4621B9BDE82C
:101BF800F8401146FFF79CBF22B9FFF74DFF254675
:101C08002846F8BD00F026F8A0420FD221463846F3
:101C1800FFF78EFF05460028F2D031462246FFF72F
:101C280017FF31463846FFF737FFE9E73546E7E75C
:101C380038B50023054C054608462360FEF79AFB95
:101C4800431C02D1236803B12B6038BD7C020020FD
:101C58007047704751F8043C181F002BBCBF0B5845
:101C6800C0187047537461636B206672616D653A82
:101C78000A000000205230203D2020253038580A24
:101C880000000000205231203D2020253038580A1D
:101C980000000000205232203D2020253038580A0C
:101CA80000000000205233203D2020253038580AFB
:101CB8000000000020523132203D20253038580ADB
:101CC80000000000204C52203D2020253038580AC2
:101CD80000000000205043203D2020253038580ABD
:101CE8000000000020505352203D20253038580A6B
:101CF800000000004653522F4641523A0A000000A5
:101D08002043465352203D2020253038580A0000F1
:101D18002048465352203D2020253038580A0000DC
:101D28002044465352203D2020253038580A0000D0
:101D38002041465352203D2020253038580A0000C3
:101D4800204D4D464152203D20253038580A00008C
:101D58002042464152203D2020253038580A0000B4
:101D68004D6973630A000000204C522F4558435FA9
:101D780052455455524E3D20253038580A0000002F
:101D88005B486172644661756C745D0A000000000E
:101D98005B4275734661756C745D0A005B557361CF
:101DA80067654661756C745D0A000000222C22008C
:101DB80000000000220D0A000000000000000000E2
:101DC80041542B43574A41503F0D0A0041542B437D
:101DD800495053454E443D00353500003435000028
:101DE80047455420687474703A2F2F002F7363721C
:101DF8006970742E7068703F636F6D6D616E643DBD
:101E08003126706167655F6E6F3D00004154453053
:101E18000D0A000041542B43574D4F44453D310DA9
:101E28000A00000041542B43495053544152543D39
:101E380022544350222C2200222C0000383000006B
:101E480036392E3139372E3134332E3134000000F3
:101E58006D6F6661726D696F742E66726565766105
:101E6800722E636F6D0000002F6275666665722EB4
:101E78007478740D0A0000002F7363726970742EF1
:101E88007068703F636F6D6D616E643D320D0A005E
:101E98002F2F3742372D3143312D394D362B2B001B
:101EA80042617373656D2026204D617A656E00006E
:101EB8002F7374617475732E7478740D0A000000A2
:101EC800232D302B2000686C4C006566674546471B
:101ED800003031323334353637383941424344459E
:101EE800460030313233343536373839616263640D
:031EF8006566001C
:101EFC0078563412FC0000200000000000000000A6
:101F0C0000000000010203040607080900A24A04AD
:101F1C000000000841542B43574A41505F4355522F
:101F2C003D22000000000000000000000000000046
:101F3C000000000000000000000000000000000095
:101F4C000000000000000000000000000000000085
:101F5C000000000000000000000000000000000075
:101F6C000000000000000000000000000000000065
:101F7C0000000000000000001000FFFF9000002097
:101F8C000000000000000000000000000000000045
:101F9C000000000000000000000000000000000035
:101FAC000000000000000000000000000000000025
:101FBC000000000000000000000000000000000015
:101FCC000000000000000000000000000000000005
:101FDC0000000000000000000000000000000000F5
:041FEC00325476985D
:040000050800010DE1
:00000001FF
